###############################################################################
#
# IAR ANSI C/C++ Compiler V7.70.1.11437/W32 for ARM       27/Mar/2018  06:08:47
# Copyright 1999-2016 IAR Systems AB.
#
#    Cpu mode     =  thumb
#    Endian       =  little
#    Source file  =  
#        C:\proj\Esel\KL16_SMAC_MQXLite_BME680\app\Sources\usr_tasks.c
#    Command line =  
#        C:\proj\Esel\KL16_SMAC_MQXLite_BME680\app\Sources\usr_tasks.c
#        --preprocess
#        "C:\proj\Esel\KL16_SMAC_MQXLite_BME680\app\kl16z128_eslora
#        MQXLite\List" -lcN
#        "C:\proj\Esel\KL16_SMAC_MQXLite_BME680\app\kl16z128_eslora
#        MQXLite\List" -o
#        "C:\proj\Esel\KL16_SMAC_MQXLite_BME680\app\kl16z128_eslora
#        MQXLite\Obj" --no_cse --no_unroll --no_inline --no_code_motion
#        --no_tbaa --no_clustering --no_scheduling --debug --endian=little
#        --cpu=Cortex-M0+ -e --fpu=None --dlib_config "C:\Program Files
#        (x86)\IAR Systems\Embedded Workbench
#        7.5\arm\INC\c\DLib_Config_Normal.h" -I
#        C:\proj\Esel\KL16_SMAC_MQXLite_BME680\app\Interface\ -I
#        C:\proj\Esel\KL16_SMAC_MQXLite_BME680\app\Sources\ -I
#        C:\proj\Esel\KL16_SMAC_MQXLite_BME680\app\..\MQXLITE\include\ -I
#        C:\proj\Esel\KL16_SMAC_MQXLite_BME680\app\..\MQXLITE\config\ -I
#        C:\proj\Esel\KL16_SMAC_MQXLite_BME680\app\..\MQXLITE\psp\cortex_m\ -I
#        C:\proj\Esel\KL16_SMAC_MQXLite_BME680\app\..\MQXLITE\psp\cortex_m\compiler\iar\
#        -I C:\proj\Esel\KL16_SMAC_MQXLite_BME680\app\..\drv\Generated_Code\ -I
#        C:\proj\Esel\KL16_SMAC_MQXLite_BME680\app\..\drv\PExSupport\Kinetis\
#        -I
#        C:\proj\Esel\KL16_SMAC_MQXLite_BME680\app\..\framework\OSAbstraction\MQXLite\Interface\
#        -I
#        C:\proj\Esel\KL16_SMAC_MQXLite_BME680\app\..\framework\RNG\Interface\
#        -I C:\proj\Esel\KL16_SMAC_MQXLite_BME680\app\..\framework\Common\ -I
#        C:\proj\Esel\KL16_SMAC_MQXLite_BME680\app\..\framework\Utils\Lists\ -I
#        C:\proj\Esel\KL16_SMAC_MQXLite_BME680\app\..\framework\Utils\FunctionLib\
#        -I
#        C:\proj\Esel\KL16_SMAC_MQXLite_BME680\app\..\framework\Utils\SecLib\
#        -I
#        C:\proj\Esel\KL16_SMAC_MQXLite_BME680\app\..\framework\FSCI\Interface\
#        -I C:\proj\Esel\KL16_SMAC_MQXLite_BME680\app\..\framework\FSCI\Source\
#        -I
#        C:\proj\Esel\KL16_SMAC_MQXLite_BME680\app\..\framework\Panic\Interface\
#        -I
#        C:\proj\Esel\KL16_SMAC_MQXLite_BME680\app\..\framework\SerialManager\Interface\
#        -I
#        C:\proj\Esel\KL16_SMAC_MQXLite_BME680\app\..\framework\MemManager\Interface\
#        -I
#        C:\proj\Esel\KL16_SMAC_MQXLite_BME680\app\..\framework\TimersManager\Interface\
#        -I
#        C:\proj\Esel\KL16_SMAC_MQXLite_BME680\app\..\framework\TimersManager\Source\
#        -I
#        C:\proj\Esel\KL16_SMAC_MQXLite_BME680\app\..\framework\Messaging\Interface\
#        -I
#        C:\proj\Esel\KL16_SMAC_MQXLite_BME680\app\..\framework\RNG\Interface\
#        -I C:\proj\Esel\KL16_SMAC_MQXLite_BME680\app\..\framework\RNG\Source\
#        -I
#        C:\proj\Esel\KL16_SMAC_MQXLite_BME680\app\..\ieee_802_15_4\Phy\Interface\
#        -I
#        C:\proj\Esel\KL16_SMAC_MQXLite_BME680\app\..\ieee_802_15_4\SMAC\Interface\
#        -I
#        C:\proj\Esel\KL16_SMAC_MQXLite_BME680\app\..\drv\Portable\ADC\Interface\
#        -I
#        C:\proj\Esel\KL16_SMAC_MQXLite_BME680\app\..\drv\Portable\BME\Interface\
#        -I
#        C:\proj\Esel\KL16_SMAC_MQXLite_BME680\app\..\drv\Portable\Flash\Interface\
#        -I
#        C:\proj\Esel\KL16_SMAC_MQXLite_BME680\app\..\drv\Portable\I2C\Interface\
#        -I
#        C:\proj\Esel\KL16_SMAC_MQXLite_BME680\app\..\drv\Portable\LED\Interface\
#        -I
#        C:\proj\Esel\KL16_SMAC_MQXLite_BME680\app\..\drv\Portable\LLWU\Interface\
#        -I
#        C:\proj\Esel\KL16_SMAC_MQXLite_BME680\app\..\drv\Portable\LPTMR\Interface\
#        -I
#        C:\proj\Esel\KL16_SMAC_MQXLite_BME680\app\..\drv\Portable\SMC\Interface\
#        -I
#        C:\proj\Esel\KL16_SMAC_MQXLite_BME680\app\..\drv\Portable\MCG\Interface\
#        -I C:\proj\Esel\KL16_SMAC_MQXLite_BME680\app\..\drv\Portable\Reset\
#        -On
#    Locale       =  Japanese_Japan.932
#    List file    =  
#        C:\proj\Esel\KL16_SMAC_MQXLite_BME680\app\kl16z128_eslora
#        MQXLite\List\usr_tasks.lst
#    Object file  =  
#        C:\proj\Esel\KL16_SMAC_MQXLite_BME680\app\kl16z128_eslora
#        MQXLite\Obj\usr_tasks.o
#
###############################################################################

C:\proj\Esel\KL16_SMAC_MQXLite_BME680\app\Sources\usr_tasks.c
      1          /*****************************************************************************
      2          * usr_tasks file.
      3          *
      4          * (c) Copyright 2016, EASEL, Inc.  All rights reserved.
      5          *
      6          * No part of this document may be reproduced in any form - including copied,
      7          * transcribed, printed or by any electronic means - without specific written
      8          * permission from EASEL.
      9          *
     10          *****************************************************************************/
     11          
     12          #include <string.h>
     13          #include "Application_Interface.h"
     14          #include "flash.h"
     15          #include "LED.h"
     16          #include "usr_tasks.h"
     17          #include "message.h"
     18          #include "mqxlite.h"
     19          #include "mqxlite_prv.h"
     20          
     21          // Add Y.Yonezawa
     22          #include "i2c.h"
     23          
     24          /************************************************************************************
     25          *************************************************************************************
     26          * Private macros
     27          *************************************************************************************
     28          ************************************************************************************/
     29          
     30          #define ESLORA			"ESLORA"
     31          #define UART_CHK_TIME	500
     32          
     33          /************************************************************************************
     34          *************************************************************************************
     35          * Private prototypes
     36          *************************************************************************************
     37          ************************************************************************************/
     38          
     39          static void MessageTask( void const* );
     40          static void InitProject( void );
     41          static void PORT_Init( void );
     42          static void ReadConfigParam( void );
     43          static void UartRxCallback( void* );
     44          static void Switch_Init( void );
     45          static void UartCheckTimerCallBack ( void* );
     46          
     47          /************************************************************************************
     48          *************************************************************************************
     49          * Private memory declarations
     50          *************************************************************************************
     51          ************************************************************************************/
     52          
     53          
     54          /************************************************************************************
     55          *************************************************************************************
     56          * Public memory declarations
     57          *************************************************************************************
     58          ************************************************************************************/
     59          
     60          TERMINAL_PARAM  mTermParam;
     61          uint8_t         CommDataBuffer[MAX_COMM_SIZE];
     62          uint8_t         SendDataBuffer[MAX_COMM_SIZE];
     63          uint16_t        CommDataIndex;
     64          bool_t          evDataFromUART;
     65          bool_t          gEnterIdle;
     66          tmrTimerID_t    IntervalTmr;
     67          tmrTimerID_t    WaitSendTmr;
     68          tmrTimerID_t    SendTimeTmr;
     69          uint8_t         mAppSer;
     70          osThreadId      myAppId;
     71          tmrTimerID_t    UartCheckTmr;
     72          uint8_t         SendDataLen;
     73          
     74          
     75          /************************************************************************************
     76          *************************************************************************************
     77          * Public functions
     78          *************************************************************************************
     79          ************************************************************************************/
     80          
     81          void MainThread( void const* );
     82          
     83          void Debug_Print( char* pString )
     84          {
     85          #if 0
     86              Serial_Print( mAppSer, pString, gAllowToBlock_d );
     87          #endif
     88          }
     89          
     90          void Debug_PrintDec( uint32_t nr )
     91          {
     92          #if 0
     93              Serial_PrintDec( mAppSer, nr );
     94          #endif
     95          }
     96          
     97          void Debug_PrintHex( uint8_t *hex, uint8_t len, uint8_t flags )
     98          {
     99          #if 0
    100              Serial_PrintHex( mAppSer, hex, len, flags );
    101          #endif
    102          }
    103          
    104          void Terminal_Print( char* pString )
    105          {
    106              if( TERMINAL == mTermParam.Mode )
    107              {
    108                  Serial_Print( mAppSer, pString, gAllowToBlock_d );
    109              }
    110          }
    111          
    112          void Terminal_PrintDec( uint32_t nr )
    113          {
    114              if( TERMINAL == mTermParam.Mode )
    115              {
    116                  Serial_PrintDec( mAppSer, nr );
    117              }
    118          }
    119          
    120          void Terminal_PrintHex( uint8_t *hex, uint8_t len, uint8_t flags )
    121          {
    122              if( TERMINAL == mTermParam.Mode )
    123              {
    124                  Serial_PrintHex( mAppSer, hex, len, flags );
    125              }
    126          }
    127          
    128          void Terminal_PrintBin( uint8_t *data, uint8_t len )
    129          {
    130              if( TERMINAL == mTermParam.Mode )
    131              {
    132                  Serial_PrintBin( mAppSer, data, len, gAllowToBlock_d );
    133              }
    134          }
    135          
    136          void Processor_Print( char* pString )
    137          {
    138              if( PROCESSOR == mTermParam.Mode )
    139              {
    140                  Serial_Print( mAppSer, pString, gAllowToBlock_d );
    141              }
    142          }
    143          
    144          void Processor_PrintDec( uint32_t nr )
    145          {
    146              if( PROCESSOR == mTermParam.Mode )
    147              {
    148                  Serial_PrintDec( mAppSer, nr );
    149              }
    150          }
    151          
    152          void Processor_PrintHex( uint8_t *hex, uint8_t len, uint8_t flags )
    153          {
    154              if( PROCESSOR == mTermParam.Mode )
    155              {
    156                  Serial_PrintHex( mAppSer, hex, len, flags );
    157              }
    158          }
    159          
    160          void Processor_PrintBin( uint8_t *data, uint8_t len )
    161          {
    162              if( PROCESSOR == mTermParam.Mode )
    163              {
    164                  Serial_PrintBin( mAppSer, data, len, gAllowToBlock_d );
    165              }
    166          }
    167          
    168          /************************************************************************************
    169          *
    170          * MainThread
    171          *
    172          * Interface assumptions:
    173          *     void const* taskParam
    174          *
    175          * Return value:
    176          *     None
    177          *
    178          ************************************************************************************/
    179          void MainThread( void const* taskParam )
    180          {
    181              MEM_Init();
    182              FLASH_Init();
    183          
    184              PORT_Init();
    185              TMR_Init();
    186              LED_Init();
    187              
    188              // Add Y.Yonezawa
    189              I2C0_Init();
    190              
    191              SerialManager_Init();
    192          
    193              MessageTask( taskParam );
    194          }
    195          
    196          
    197          /************************************************************************************
    198          *************************************************************************************
    199          * Private functions
    200          *************************************************************************************
    201          ************************************************************************************/
    202          /************************************************************************************
    203          *
    204          * MessageTask
    205          *
    206          * Interface assumptions:
    207          *     void const *argument
    208          *
    209          * Return value:
    210          *     None
    211          *
    212          ************************************************************************************/
    213          
    214          /************************************************************************************
    215          *
    216          * MessageTask
    217          *
    218          * Interface assumptions:
    219          *     void const *argument
    220          *
    221          * Return value:
    222          *     None
    223          *
    224          ************************************************************************************/
    225          static void MessageTask( void const *argument )
    226          {
    227              /* Initialization of global variables */
    228              InitProject();
    229          
    230              /* Read configuration parameter from internal FlashROM */
    231              ReadConfigParam();
    232          
    233              /* Get handle of uart interface */
    234              Serial_InitInterface( &mAppSer, gSerialMgrUart_c, 1 );
    235          
    236              /* Set default baud */
    237              Serial_SetBaudRate( mAppSer, mTermParam.Baudrate );
    238          
    239              if( RCM_SRS0 != RCM_SRS0_WAKEUP_MASK )
    240              {
    241          	    /* Start Led Flashing */
    242          	    LED_StartFlash( LED_ALL );
    243          
    244          	    /* show configuration menu */
    245          	    if( (CONFIG == mTermParam.Operation) || !(GPIOC_PDIR & (1<<1)) )
    246          	    {
    247                      Serial_SetRxCallBack( mAppSer, CommRxCallBack, NULL );
    248          
    249          	        DoConfiguration();
    250          	    }
    251          
    252          	    /* Stop Led Flashing */
    253          	    LED_StopFlash( LED_ALL );
    254              }
    255              else
    256              {
    257                  gEnterIdle = FALSE;
    258              }
    259          
    260          	/* Initialize Switch */
    261              if( (TIMER_WAKEUP == mTermParam.Sleep) || (GPIOC_PDIR & (1<<1)) )
    262              {
    263                  gEnterIdle = TRUE;
    264              }
    265              else
    266              {
    267                  gEnterIdle = FALSE;
    268              }
    269          
    270              Switch_Init();
    271          
    272              /* replace UART callback function */
    273              Serial_SetRxCallBack( mAppSer, UartRxCallback, NULL );
    274              
    275              /* Add Y.Yonezawa */
    276              //SHT31_Init();
    277              //FDC2214_Init_2ch();
    278          
    279              DoOperation();
    280          }
    281          
    282          /************************************************************************************
    283          *
    284          * InitProject
    285          *
    286          * Interface assumptions:
    287          *     None
    288          *
    289          * Return value:
    290          *     None
    291          *
    292          ************************************************************************************/
    293          static void InitProject( void )
    294          {
    295              /* Global Data init */
    296              CommDataIndex       = 0;
    297              evDataFromUART      = FALSE;
    298              gEnterIdle          = TRUE;
    299              myAppId             = osThreadGetId();          // Get application thread id
    300              SendDataLen         = 0;
    301          }
    302          
    303          /************************************************************************************
    304          *
    305          * PORT_Init
    306          *
    307          * Interface assumptions:
    308          *     None
    309          *
    310          * Return value:
    311          *     None
    312          *
    313          ************************************************************************************/
    314          static void PORT_Init( void )
    315          {
    316              /* Port A */
    317              PORTA_PCR18 = PORT_PCR_MUX(1);
    318              GPIOA_PDDR |= (uint32_t)(1<<18);
    319              PORTA_PCR19 = PORT_PCR_MUX(1);
    320              GPIOA_PDDR |= (uint32_t)(1<<19);
    321          
    322              /* Port B */
    323              /*
    324              PORTB_PCR0 = PORT_PCR_MUX(1);
    325              GPIOB_PDDR |= (uint32_t)(1<<0);
    326              PORTB_PCR1 = PORT_PCR_MUX(1);
    327              GPIOB_PDDR |= (uint32_t)(1<<1);
    328              */
    329          
    330              /* Port C */
    331              PORTC_PCR1 = PORT_PCR_MUX(1);
    332              GPIOC_PDDR &= (uint32_t)~(uint32_t)(1<<1);
    333          
    334              /* Port E */
    335              PORTE_PCR0 = PORT_PCR_MUX(1);
    336              GPIOE_PDDR |= (uint32_t)(1<<0);
    337              PORTE_PCR18 = PORT_PCR_MUX(1);
    338              GPIOE_PDDR |= (uint32_t)(1<<18);
    339              PORTE_PCR19 = PORT_PCR_MUX(1);
    340              GPIOE_PDDR |= (uint32_t)(1<<19);
    341              PORTE_PCR30 = PORT_PCR_MUX(1);
    342              GPIOE_PDDR |= (uint32_t)(1<<30);
    343          }
    344          
    345          /************************************************************************************
    346          *
    347          * Switch_Init
    348          *
    349          * Interface assumptions:
    350          *     None
    351          *
    352          * Return value:
    353          *     None
    354          *
    355          ************************************************************************************/
    356          static void Switch_Init( void )
    357          {
    358              PORTC_PCR1 = PORT_PCR_MUX(1)  | PORT_PCR_ISF_MASK |
    359                           PORT_PCR_PE_MASK | PORT_PCR_PS_MASK  | PORT_PCR_IRQC(0x09);
    360          
    361              if( osInstallIsr(INT_PORTC_PORTD, Switch_Interrupt, NULL) != NULL )
    362              {
    363                  /* Set PORTC interrupt priority level 2 */
    364                  NVIC_IPR7 &= 0x3FFFFFFF;
    365                  NVIC_IPR7 |= 0x80000000;
    366          
    367                  /* Enable Interrupt */
    368                  NVIC_ICPR |= (uint32_t)(1 << ((INT_PORTC_PORTD-16)%32));
    369                  NVIC_ISER |= (uint32_t)(1 << ((INT_PORTC_PORTD-16)%32));
    370              }
    371          }
    372          
    373          /************************************************************************************
    374          *
    375          * ReadConfigParam
    376          *
    377          * Interface assumptions:
    378          *     None
    379          *
    380          * Return value:
    381          *     None
    382          *
    383          ************************************************************************************/
    384          static void ReadConfigParam( void )
    385          {
    386              int ret = 0;
    387          
    388          
    389              FLib_MemSet16( &mTermParam, 0x00, sizeof(mTermParam) );
    390          
    391              *((uint16_t*)&mTermParam.Once[0]) = FLASH_ReadShortWord( FLASH_OFS_ONCE     );
    392              *((uint16_t*)&mTermParam.Once[2]) = FLASH_ReadShortWord( FLASH_OFS_ONCE + 2 );
    393              *((uint16_t*)&mTermParam.Once[4]) = FLASH_ReadShortWord( FLASH_OFS_ONCE + 4 );
    394          
    395              ret = strncmp( (char*)mTermParam.Once, ESLORA, 6 );
    396              if( 0 == ret )
    397              {
    398                  /* baudrate */
    399                  mTermParam.Baudrate     = FLASH_ReadLongWord( FLASH_OFS_BAUDRATE );
    400          
    401                  /* sleeptime */
    402                  mTermParam.SleepTime    = FLASH_ReadLongWord( FLASH_OFS_SLEEPTIME );
    403          
    404                  /* power */
    405                  mTermParam.Power        = (int32_t)FLASH_ReadLongWord( FLASH_OFS_POWER );
    406          
    407                  /* ack */
    408                  mTermParam.Ack          = FLASH_ReadShortWord( FLASH_OFS_ACK );
    409          
    410                  /* bw */
    411                  mTermParam.Bw           = FLASH_ReadShortWord( FLASH_OFS_BW );
    412          
    413                  /* channel */
    414                  mTermParam.Channel      = FLASH_ReadShortWord( FLASH_OFS_CHANNEL );
    415          
    416                  /* dstid */
    417                  mTermParam.DstId        = FLASH_ReadShortWord( FLASH_OFS_DSTID );
    418          
    419                  /* endid */
    420                  mTermParam.EndId        = FLASH_ReadShortWord( FLASH_OFS_ENDID );
    421          
    422                  /* hopcount */
    423                  mTermParam.HopCnt       = FLASH_ReadShortWord( FLASH_OFS_HOPCNT );
    424          
    425                  /* mode */
    426                  mTermParam.Mode         = FLASH_ReadShortWord( FLASH_OFS_MODE );
    427          
    428                  /* node */
    429                  mTermParam.Node         = FLASH_ReadShortWord( FLASH_OFS_NODE );
    430          
    431                  /* operation */
    432                  mTermParam.Operation    = FLASH_ReadShortWord( FLASH_OFS_OPERATION );
    433          
    434                  /* panid */
    435                  mTermParam.PanId        = FLASH_ReadShortWord( FLASH_OFS_PANID );
    436          
    437                  /* rcvid */
    438                  mTermParam.RcvId        = FLASH_ReadShortWord( FLASH_OFS_RCVID );
    439          
    440                  /* retry */
    441                  mTermParam.Retry        = FLASH_ReadShortWord( FLASH_OFS_RETRY );
    442          
    443                  /* route1 */
    444                  mTermParam.Route[0]     = FLASH_ReadShortWord( FLASH_OFS_ROUTE1 );
    445          
    446                  /* route2 */
    447                  mTermParam.Route[1]     = FLASH_ReadShortWord( FLASH_OFS_ROUTE2 );
    448          
    449                  /* rssi */
    450                  mTermParam.Rssi         = FLASH_ReadShortWord( FLASH_OFS_RSSI );
    451          
    452                  /* sf */
    453                  mTermParam.Sf           = FLASH_ReadShortWord( FLASH_OFS_SF );
    454          
    455                  /* sleep */
    456                  mTermParam.Sleep        = FLASH_ReadShortWord( FLASH_OFS_SLEEP );
    457          
    458                  /* srcid */
    459                  mTermParam.SrcId        = FLASH_ReadShortWord( FLASH_OFS_SRCID );
    460          
    461                  /* transmode */
    462                  mTermParam.TransMode    = FLASH_ReadShortWord( FLASH_OFS_TRANSMODE );
    463          
    464                  /* format */
    465                  mTermParam.Format       = FLASH_ReadShortWord( FLASH_OFS_FORMAT );
    466          
    467                  /* sendtime */
    468                  mTermParam.SendTime     = FLASH_ReadLongWord( FLASH_OFS_SENDTIME );
    469          
    470                  /* senddata */
    471                  FLib_MemCpy( mTermParam.SendData, (uint8_t*)(FLASH_PARAM_TOP + FLASH_OFS_SENDDATA), 52 );
    472              }
    473              else
    474              {
    475                  mTermParam.Once[0] = 'E';
    476                  mTermParam.Once[1] = 'S';
    477                  mTermParam.Once[2] = 'L';
    478                  mTermParam.Once[3] = 'O';
    479                  mTermParam.Once[4] = 'R';
    480                  mTermParam.Once[5] = 'A';
    481          
    482                  SettingDefaultValue();
    483              }
    484          
    485              Serial_SetBaudRate( mAppSer, mTermParam.Baudrate );
    486          }
    487          
    488          /************************************************************************************
    489          *
    490          * SettingDefaultValue
    491          *
    492          * Interface assumptions:
    493          *     None
    494          *
    495          * Return value:
    496          *     None
    497          *
    498          ************************************************************************************/
    499          void SettingDefaultValue( void )
    500          {
    501              /* baudrate */
    502              mTermParam.Baudrate     = gUARTBaudRate115200_c;
    503          
    504              /* sleeptime */
    505              mTermParam.SleepTime    = 50;
    506          
    507              /* power */
    508              mTermParam.Power        = 13;
    509          
    510              /* ack */
    511              mTermParam.Ack          = MODE_ON;
    512          
    513              /* bw */
    514              mTermParam.Bw           = BANDWIDTH125;
    515          
    516              /* channel */
    517              mTermParam.Channel      = 1;
    518          
    519              /* dstid */
    520              mTermParam.DstId        = 0x0000;
    521          
    522              /* endid */
    523              mTermParam.EndId        = 0x0000;
    524          
    525              /* hopcount */
    526              mTermParam.HopCnt       = 0x0001;
    527          
    528              /* node */
    529              mTermParam.Node         = END_DEVICE;
    530          
    531              /* operation */
    532              mTermParam.Operation    = CONFIG;
    533          
    534              /* panid */
    535              mTermParam.PanId        = 0x0001;
    536          
    537              /* rcvid */
    538              mTermParam.RcvId        = MODE_OFF;
    539          
    540              /* retry */
    541              mTermParam.Retry        = 3;
    542          
    543              /* route1 */
    544              mTermParam.Route[0]     = 0x0001;
    545          
    546              /* route2 */
    547              mTermParam.Route[1]     = 0x0001;
    548          
    549              /* rssi */
    550              mTermParam.Rssi         = MODE_OFF;
    551          
    552              /* sf */
    553              mTermParam.Sf           = 7;
    554          
    555              /* sleep */
    556              mTermParam.Sleep        = NO_SLEEP;
    557          
    558              /* srcid */
    559              mTermParam.SrcId        = 0x0001;
    560          
    561              /* transmode */
    562              mTermParam.TransMode    = TRANS_PAYLOAD;
    563          
    564              /* format */
    565              mTermParam.Format       = FMT_ASCII;
    566          
    567              /* sendtime */
    568              mTermParam.SendTime     = 0;
    569          
    570              /* senddata */
    571              mTermParam.SendData[0]  = '\0';
    572          }
    573          
    574          
    575          /************************************************************************************
    576          * User's Callbacks
    577          ************************************************************************************/
    578          
    579          /************************************************************************************
    580          *
    581          * UartRxCallback
    582          *
    583          * Interface assumptions:
    584          *     void* param
    585          *
    586          * Return value:
    587          *     None
    588          *
    589          ************************************************************************************/
    590          static void UartRxCallback( void* param )
    591          {
    592              static uint16_t rcvlen = 0;
    593              uint32_t length;
    594              uint16_t readBytes;
    595              int      ret;
    596          
    597          
    598              while( gSerial_Success_c == Serial_GetByteFromRxBuffer(mAppSer, &CommDataBuffer[CommDataIndex], &readBytes) )
    599              {
    600                  if( 0 == readBytes )
    601                  {
    602                      break;
    603                  }
    604          
    605                  if( FMT_ASCII == mTermParam.Format )
    606                  {
    607                      if( (0 < CommDataIndex) && (('\r' == CommDataBuffer[CommDataIndex-1]) && ('\n' == CommDataBuffer[CommDataIndex])) )
    608                      {
    609                          CommDataBuffer[CommDataIndex-1] = '\0';
    610                          CommDataBuffer[CommDataIndex]   = '\0';
    611          
    612                          CommDataIndex = 0;
    613          
    614                          ret = strcmp( (char*)CommDataBuffer, "config" );
    615                          if( 0 == ret )
    616                          {
    617                              mTermParam.Operation = CONFIG;
    618          
    619                              _int_disable();
    620          
    621                              FLASH_EraseSector( FLASH_PARAM_TOP );
    622          
    623                              length = sizeof(mTermParam) + ((sizeof(mTermParam) % 4) ? (4 - sizeof(mTermParam) % 4) : 0);
    624          
    625                              FLASH_ProgramSectionByLongs( FLASH_PARAM_TOP, (uint32_t*)&mTermParam, (length / sizeof(uint32_t)) );
    626          
    627                              _int_enable();
    628                          }
    629                          else
    630                          {
    631                              /* ignore only enter key */
    632                              if ( '\0' == CommDataBuffer[0] )
    633                              {
    634                                  return;
    635                              }
    636          
    637                              SendDataLen = strlen( (char*)CommDataBuffer );
    638          
    639                              strcpy( (char*)SendDataBuffer, (char*)CommDataBuffer );
    640          
    641                              osSignalSet( myAppId, EVENT_UART_RX );
    642                          }
    643                      }
    644                      else
    645                      {
    646                          CommDataIndex++;
    647                          if( MAX_COMM_SIZE <= CommDataIndex )
    648                          {
    649                              CommDataIndex = 0;
    650                          }
    651                      }
    652                  }
    653                  else
    654                  {
    655                      /* receive length */
    656                      if( 0 == CommDataIndex )
    657                      {
    658                          rcvlen = CommDataBuffer[0];
    659          
    660                          CommDataIndex++;
    661          
    662                          TMR_StartSingleShotTimer( UartCheckTmr, UART_CHK_TIME, UartCheckTimerCallBack, NULL );
    663                      }
    664                      else if( (5 == CommDataIndex) && (0 == strcmp( (char*)CommDataBuffer, "config" )) )
    665                      {
    666                          TMR_StopTimer( UartCheckTmr );
    667          
    668                          mTermParam.Operation = CONFIG;
    669          
    670                          _int_disable();
    671          
    672                          FLASH_EraseSector( FLASH_PARAM_TOP );
    673          
    674                          length = sizeof(mTermParam) + ((sizeof(mTermParam) % 4) ? (4 - sizeof(mTermParam) % 4) : 0);
    675          
    676                          FLASH_ProgramSectionByLongs( FLASH_PARAM_TOP, (uint32_t*)&mTermParam, (length / sizeof(uint32_t)) );
    677          
    678                          _int_enable();
    679                      }
    680                      /* receive end */
    681                      else if( rcvlen == CommDataIndex )
    682                      {
    683                          TMR_StopTimer( UartCheckTmr );
    684          
    685                          SendDataLen = rcvlen;
    686          
    687                          FLib_MemCpy( SendDataBuffer, &CommDataBuffer[1], CommDataIndex );
    688          
    689                          osSignalSet( myAppId, EVENT_UART_RX );
    690          
    691                          CommDataIndex = 0;
    692                      }
    693                      /* other */
    694                      else
    695                      {
    696                          TMR_StopTimer( UartCheckTmr );
    697          
    698                          CommDataIndex++;
    699                          if( MAX_COMM_SIZE <= CommDataIndex )
    700                          {
    701                              CommDataIndex = 0;
    702                          }
    703          
    704                          TMR_StartSingleShotTimer( UartCheckTmr, UART_CHK_TIME, UartCheckTimerCallBack, NULL );
    705                      }
    706                  }
    707              }
    708          }
    709          
    710          /************************************************************************************
    711          *
    712          * UartCheckTimerCallBack
    713          *
    714          * Interface assumptions:
    715          *     param       timer ID
    716          *
    717          * Return value:
    718          *     None
    719          *
    720          ************************************************************************************/
    721          static void UartCheckTimerCallBack( void* param )
    722          {
    723              CommDataIndex = 0;
    724          }

   Maximum stack usage in bytes:

   .cstack Function
   ------- --------
       0   Debug_Print
       0   Debug_PrintDec
       0   Debug_PrintHex
       8   InitProject
         8   -> osThreadGetId
       8   MainThread
         8   -> FLASH_Init
         8   -> I2C0_Init
         8   -> LED_Init
         8   -> MEM_Init
         8   -> MessageTask
         8   -> PORT_Init
         8   -> SerialManager_Init
         8   -> TMR_Init
       8   MessageTask
         8   -> DoConfiguration
         8   -> DoOperation
         8   -> InitProject
         8   -> LED_StartFlash
         8   -> LED_StopFlash
         8   -> ReadConfigParam
         8   -> Serial_InitInterface
         8   -> Serial_SetBaudRate
         8   -> Serial_SetRxCallBack
         8   -> Switch_Init
       0   PORT_Init
       8   Processor_Print
         8   -> Serial_Print
      16   Processor_PrintBin
        16   -> Serial_PrintBin
       8   Processor_PrintDec
         8   -> Serial_PrintDec
      16   Processor_PrintHex
        16   -> Serial_PrintHex
       8   ReadConfigParam
         8   -> FLASH_ReadLongWord
         8   -> FLASH_ReadShortWord
         8   -> FLib_MemCpy
         8   -> FLib_MemSet
         8   -> Serial_SetBaudRate
         8   -> SettingDefaultValue
         8   -> strncmp
       0   SettingDefaultValue
       8   Switch_Init
         8   -> osInstallIsr
       8   Terminal_Print
         8   -> Serial_Print
      16   Terminal_PrintBin
        16   -> Serial_PrintBin
       8   Terminal_PrintDec
         8   -> Serial_PrintDec
      16   Terminal_PrintHex
        16   -> Serial_PrintHex
       0   UartCheckTimerCallBack
      24   UartRxCallback
        24   -> FLASH_EraseSector
        24   -> FLASH_ProgramSectionByLongs
        24   -> FLib_MemCpy
        24   -> Serial_Read
        24   -> TMR_StartSingleShotTimer
        24   -> TMR_StopTimer
        24   -> _int_disable
        24   -> _int_enable
        24   -> osSignalSet
        24   -> strcmp
        24   -> strcpy
        24   -> strlen


   Section sizes:

   Bytes  Function/Label
   -----  --------------
       4  ??DataTable11
       4  ??DataTable11_1
       4  ??DataTable11_2
       4  ??DataTable11_3
       4  ??DataTable11_4
       4  ??DataTable11_5
       4  ??DataTable11_6
       4  ??DataTable12
       4  ??DataTable12_1
       4  ??DataTable12_10
       4  ??DataTable12_11
       4  ??DataTable12_12
       4  ??DataTable12_13
       4  ??DataTable12_2
       4  ??DataTable12_3
       4  ??DataTable12_4
       4  ??DataTable12_5
       4  ??DataTable12_6
       4  ??DataTable12_7
       4  ??DataTable12_8
       4  ??DataTable12_9
       4  ??DataTable13
       4  ??DataTable13_1
       4  ??DataTable13_10
       4  ??DataTable13_11
       4  ??DataTable13_12
       4  ??DataTable13_13
       4  ??DataTable13_14
       4  ??DataTable13_15
       4  ??DataTable13_16
       4  ??DataTable13_17
       4  ??DataTable13_18
       4  ??DataTable13_19
       4  ??DataTable13_2
       4  ??DataTable13_20
       4  ??DataTable13_21
       4  ??DataTable13_22
       4  ??DataTable13_23
       4  ??DataTable13_24
       4  ??DataTable13_25
       4  ??DataTable13_26
       4  ??DataTable13_27
       4  ??DataTable13_28
       4  ??DataTable13_3
       4  ??DataTable13_4
       4  ??DataTable13_5
       4  ??DataTable13_6
       4  ??DataTable13_7
       4  ??DataTable13_8
       4  ??DataTable13_9
       4  ??DataTable15
       4  ??DataTable15_1
       4  ??DataTable15_10
       4  ??DataTable15_11
       4  ??DataTable15_12
       4  ??DataTable15_13
       4  ??DataTable15_2
       4  ??DataTable15_3
       4  ??DataTable15_4
       4  ??DataTable15_5
       4  ??DataTable15_6
       4  ??DataTable15_7
       4  ??DataTable15_8
       4  ??DataTable15_9
       4  ??DataTable9
       8  ?_0
       8  ?_1
     256  CommDataBuffer
       2  CommDataIndex
       2  Debug_Print
       2  Debug_PrintDec
       2  Debug_PrintHex
      36  InitProject
       1  IntervalTmr
      40  MainThread
     148  MessageTask
     152  PORT_Init
      26  Processor_Print
      32  Processor_PrintBin
      24  Processor_PrintDec
      36  Processor_PrintHex
     366  ReadConfigParam
     256  SendDataBuffer
       1  SendDataLen
       1  SendTimeTmr
     154  SettingDefaultValue
      78  Switch_Init
      26  Terminal_Print
      32  Terminal_PrintBin
      24  Terminal_PrintDec
      36  Terminal_PrintHex
       8  UartCheckTimerCallBack
       1  UartCheckTmr
     458  UartRxCallback
       1  WaitSendTmr
       1  evDataFromUART
       1  gEnterIdle
       1  mAppSer
     168  mTermParam
       4  myAppId
       2  rcvlen

 
   696 bytes in section .bss
    16 bytes in section .rodata
 1 942 bytes in section .text
 
 1 942 bytes of CODE  memory
    16 bytes of CONST memory
   696 bytes of DATA  memory

Errors: none
Warnings: none
